{
  "address": "0xd7162092f616ab0d9c14BfA29c38Ab781D90D345",
  "abi": [
    {
      "inputs": [
        {
          "internalType": "string",
          "name": "uri_",
          "type": "string"
        }
      ],
      "stateMutability": "nonpayable",
      "type": "constructor"
    },
    {
      "anonymous": false,
      "inputs": [
        {
          "indexed": true,
          "internalType": "uint256",
          "name": "tokenId",
          "type": "uint256"
        },
        {
          "indexed": false,
          "internalType": "address",
          "name": "paymentToken",
          "type": "address"
        },
        {
          "indexed": false,
          "internalType": "uint256",
          "name": "price",
          "type": "uint256"
        },
        {
          "indexed": false,
          "internalType": "uint256",
          "name": "maxSupply",
          "type": "uint256"
        }
      ],
      "name": "Activate",
      "type": "event"
    },
    {
      "anonymous": false,
      "inputs": [
        {
          "indexed": true,
          "internalType": "address",
          "name": "account",
          "type": "address"
        },
        {
          "indexed": true,
          "internalType": "address",
          "name": "operator",
          "type": "address"
        },
        {
          "indexed": false,
          "internalType": "bool",
          "name": "approved",
          "type": "bool"
        }
      ],
      "name": "ApprovalForAll",
      "type": "event"
    },
    {
      "anonymous": false,
      "inputs": [
        {
          "indexed": false,
          "internalType": "uint256",
          "name": "saleTokenId",
          "type": "uint256"
        }
      ],
      "name": "Deactivate",
      "type": "event"
    },
    {
      "anonymous": false,
      "inputs": [
        {
          "indexed": true,
          "internalType": "address",
          "name": "previousOwner",
          "type": "address"
        },
        {
          "indexed": true,
          "internalType": "address",
          "name": "newOwner",
          "type": "address"
        }
      ],
      "name": "OwnershipTransferred",
      "type": "event"
    },
    {
      "anonymous": false,
      "inputs": [
        {
          "indexed": true,
          "internalType": "address",
          "name": "operator",
          "type": "address"
        },
        {
          "indexed": true,
          "internalType": "address",
          "name": "from",
          "type": "address"
        },
        {
          "indexed": true,
          "internalType": "address",
          "name": "to",
          "type": "address"
        },
        {
          "indexed": false,
          "internalType": "uint256[]",
          "name": "ids",
          "type": "uint256[]"
        },
        {
          "indexed": false,
          "internalType": "uint256[]",
          "name": "values",
          "type": "uint256[]"
        }
      ],
      "name": "TransferBatch",
      "type": "event"
    },
    {
      "anonymous": false,
      "inputs": [
        {
          "indexed": true,
          "internalType": "address",
          "name": "operator",
          "type": "address"
        },
        {
          "indexed": true,
          "internalType": "address",
          "name": "from",
          "type": "address"
        },
        {
          "indexed": true,
          "internalType": "address",
          "name": "to",
          "type": "address"
        },
        {
          "indexed": false,
          "internalType": "uint256",
          "name": "id",
          "type": "uint256"
        },
        {
          "indexed": false,
          "internalType": "uint256",
          "name": "value",
          "type": "uint256"
        }
      ],
      "name": "TransferSingle",
      "type": "event"
    },
    {
      "anonymous": false,
      "inputs": [
        {
          "indexed": false,
          "internalType": "string",
          "name": "value",
          "type": "string"
        },
        {
          "indexed": true,
          "internalType": "uint256",
          "name": "id",
          "type": "uint256"
        }
      ],
      "name": "URI",
      "type": "event"
    },
    {
      "inputs": [
        {
          "internalType": "address",
          "name": "paymentTokenContract_",
          "type": "address"
        },
        {
          "internalType": "uint256",
          "name": "salePrice_",
          "type": "uint256"
        },
        {
          "internalType": "uint256",
          "name": "saleTokenId_",
          "type": "uint256"
        },
        {
          "internalType": "string",
          "name": "tokenURI_",
          "type": "string"
        },
        {
          "internalType": "uint256",
          "name": "maxSupply_",
          "type": "uint256"
        }
      ],
      "name": "activate",
      "outputs": [],
      "stateMutability": "nonpayable",
      "type": "function"
    },
    {
      "inputs": [
        {
          "internalType": "address",
          "name": "account",
          "type": "address"
        },
        {
          "internalType": "uint256",
          "name": "id",
          "type": "uint256"
        }
      ],
      "name": "balanceOf",
      "outputs": [
        {
          "internalType": "uint256",
          "name": "",
          "type": "uint256"
        }
      ],
      "stateMutability": "view",
      "type": "function"
    },
    {
      "inputs": [
        {
          "internalType": "address[]",
          "name": "accounts",
          "type": "address[]"
        },
        {
          "internalType": "uint256[]",
          "name": "ids",
          "type": "uint256[]"
        }
      ],
      "name": "balanceOfBatch",
      "outputs": [
        {
          "internalType": "uint256[]",
          "name": "",
          "type": "uint256[]"
        }
      ],
      "stateMutability": "view",
      "type": "function"
    },
    {
      "inputs": [],
      "name": "baseURI",
      "outputs": [
        {
          "internalType": "string",
          "name": "",
          "type": "string"
        }
      ],
      "stateMutability": "view",
      "type": "function"
    },
    {
      "inputs": [
        {
          "internalType": "address",
          "name": "account",
          "type": "address"
        },
        {
          "internalType": "uint256",
          "name": "id",
          "type": "uint256"
        },
        {
          "internalType": "uint256",
          "name": "amount",
          "type": "uint256"
        }
      ],
      "name": "burn",
      "outputs": [],
      "stateMutability": "nonpayable",
      "type": "function"
    },
    {
      "inputs": [
        {
          "internalType": "address",
          "name": "account",
          "type": "address"
        },
        {
          "internalType": "uint256[]",
          "name": "ids",
          "type": "uint256[]"
        },
        {
          "internalType": "uint256[]",
          "name": "amounts",
          "type": "uint256[]"
        }
      ],
      "name": "burnBatch",
      "outputs": [],
      "stateMutability": "nonpayable",
      "type": "function"
    },
    {
      "inputs": [
        {
          "internalType": "uint256",
          "name": "numItems",
          "type": "uint256"
        }
      ],
      "name": "buyMetaLoot",
      "outputs": [],
      "stateMutability": "nonpayable",
      "type": "function"
    },
    {
      "inputs": [],
      "name": "deactivate",
      "outputs": [],
      "stateMutability": "nonpayable",
      "type": "function"
    },
    {
      "inputs": [
        {
          "internalType": "uint256",
          "name": "id",
          "type": "uint256"
        }
      ],
      "name": "exists",
      "outputs": [
        {
          "internalType": "bool",
          "name": "",
          "type": "bool"
        }
      ],
      "stateMutability": "view",
      "type": "function"
    },
    {
      "inputs": [
        {
          "internalType": "address",
          "name": "account",
          "type": "address"
        },
        {
          "internalType": "address",
          "name": "operator",
          "type": "address"
        }
      ],
      "name": "isApprovedForAll",
      "outputs": [
        {
          "internalType": "bool",
          "name": "",
          "type": "bool"
        }
      ],
      "stateMutability": "view",
      "type": "function"
    },
    {
      "inputs": [],
      "name": "maxSupply",
      "outputs": [
        {
          "internalType": "uint256",
          "name": "",
          "type": "uint256"
        }
      ],
      "stateMutability": "view",
      "type": "function"
    },
    {
      "inputs": [
        {
          "internalType": "address",
          "name": "account",
          "type": "address"
        },
        {
          "internalType": "uint256",
          "name": "id",
          "type": "uint256"
        },
        {
          "internalType": "uint256",
          "name": "amount",
          "type": "uint256"
        },
        {
          "internalType": "string",
          "name": "tokenUri_",
          "type": "string"
        },
        {
          "internalType": "bytes",
          "name": "data",
          "type": "bytes"
        }
      ],
      "name": "mint",
      "outputs": [],
      "stateMutability": "nonpayable",
      "type": "function"
    },
    {
      "inputs": [],
      "name": "owner",
      "outputs": [
        {
          "internalType": "address",
          "name": "",
          "type": "address"
        }
      ],
      "stateMutability": "view",
      "type": "function"
    },
    {
      "inputs": [],
      "name": "paymentTokenContract",
      "outputs": [
        {
          "internalType": "address",
          "name": "",
          "type": "address"
        }
      ],
      "stateMutability": "view",
      "type": "function"
    },
    {
      "inputs": [],
      "name": "renounceOwnership",
      "outputs": [],
      "stateMutability": "nonpayable",
      "type": "function"
    },
    {
      "inputs": [
        {
          "internalType": "uint256",
          "name": "",
          "type": "uint256"
        },
        {
          "internalType": "uint256",
          "name": "value",
          "type": "uint256"
        }
      ],
      "name": "royaltyInfo",
      "outputs": [
        {
          "internalType": "address",
          "name": "",
          "type": "address"
        },
        {
          "internalType": "uint256",
          "name": "",
          "type": "uint256"
        }
      ],
      "stateMutability": "view",
      "type": "function"
    },
    {
      "inputs": [
        {
          "internalType": "address",
          "name": "from",
          "type": "address"
        },
        {
          "internalType": "address",
          "name": "to",
          "type": "address"
        },
        {
          "internalType": "uint256[]",
          "name": "ids",
          "type": "uint256[]"
        },
        {
          "internalType": "uint256[]",
          "name": "amounts",
          "type": "uint256[]"
        },
        {
          "internalType": "bytes",
          "name": "data",
          "type": "bytes"
        }
      ],
      "name": "safeBatchTransferFrom",
      "outputs": [],
      "stateMutability": "nonpayable",
      "type": "function"
    },
    {
      "inputs": [
        {
          "internalType": "address",
          "name": "from",
          "type": "address"
        },
        {
          "internalType": "address",
          "name": "to",
          "type": "address"
        },
        {
          "internalType": "uint256",
          "name": "id",
          "type": "uint256"
        },
        {
          "internalType": "uint256",
          "name": "amount",
          "type": "uint256"
        },
        {
          "internalType": "bytes",
          "name": "data",
          "type": "bytes"
        }
      ],
      "name": "safeTransferFrom",
      "outputs": [],
      "stateMutability": "nonpayable",
      "type": "function"
    },
    {
      "inputs": [],
      "name": "saleActive",
      "outputs": [
        {
          "internalType": "bool",
          "name": "",
          "type": "bool"
        }
      ],
      "stateMutability": "view",
      "type": "function"
    },
    {
      "inputs": [],
      "name": "salePrice",
      "outputs": [
        {
          "internalType": "uint256",
          "name": "",
          "type": "uint256"
        }
      ],
      "stateMutability": "view",
      "type": "function"
    },
    {
      "inputs": [],
      "name": "saleTokenId",
      "outputs": [
        {
          "internalType": "uint256",
          "name": "",
          "type": "uint256"
        }
      ],
      "stateMutability": "view",
      "type": "function"
    },
    {
      "inputs": [
        {
          "internalType": "address",
          "name": "operator",
          "type": "address"
        },
        {
          "internalType": "bool",
          "name": "approved",
          "type": "bool"
        }
      ],
      "name": "setApprovalForAll",
      "outputs": [],
      "stateMutability": "nonpayable",
      "type": "function"
    },
    {
      "inputs": [
        {
          "internalType": "string",
          "name": "uri_",
          "type": "string"
        }
      ],
      "name": "setBaseURI",
      "outputs": [],
      "stateMutability": "nonpayable",
      "type": "function"
    },
    {
      "inputs": [
        {
          "internalType": "bytes4",
          "name": "interfaceId",
          "type": "bytes4"
        }
      ],
      "name": "supportsInterface",
      "outputs": [
        {
          "internalType": "bool",
          "name": "",
          "type": "bool"
        }
      ],
      "stateMutability": "view",
      "type": "function"
    },
    {
      "inputs": [
        {
          "internalType": "uint256",
          "name": "id",
          "type": "uint256"
        }
      ],
      "name": "totalSupply",
      "outputs": [
        {
          "internalType": "uint256",
          "name": "",
          "type": "uint256"
        }
      ],
      "stateMutability": "view",
      "type": "function"
    },
    {
      "inputs": [
        {
          "internalType": "address",
          "name": "newOwner",
          "type": "address"
        }
      ],
      "name": "transferOwnership",
      "outputs": [],
      "stateMutability": "nonpayable",
      "type": "function"
    },
    {
      "inputs": [
        {
          "internalType": "uint256",
          "name": "tokenId",
          "type": "uint256"
        },
        {
          "internalType": "string",
          "name": "tokenUri_",
          "type": "string"
        }
      ],
      "name": "updateTokenURI",
      "outputs": [],
      "stateMutability": "nonpayable",
      "type": "function"
    },
    {
      "inputs": [
        {
          "internalType": "uint256",
          "name": "tokenId",
          "type": "uint256"
        }
      ],
      "name": "uri",
      "outputs": [
        {
          "internalType": "string",
          "name": "",
          "type": "string"
        }
      ],
      "stateMutability": "view",
      "type": "function"
    },
    {
      "inputs": [
        {
          "internalType": "contract IERC20",
          "name": "token",
          "type": "address"
        },
        {
          "internalType": "address",
          "name": "recipient",
          "type": "address"
        }
      ],
      "name": "withdrawFunds",
      "outputs": [],
      "stateMutability": "nonpayable",
      "type": "function"
    }
  ],
  "transactionHash": "0xea0e4fdc79764545cfe6747df129d949af40bcf0213ea7c59f05b24ff1828689",
  "args": [
    "ipfs://"
  ],
  "solcInputHash": "000bf21d9d7fd3c9d93a6a6a5bb6654d",
  "bytecode": "0x60806040523480156200001157600080fd5b50604051620030ea380380620030ea833981016040819052620000349162000188565b6040805160208101909152600081526200004e8162000077565b506200005a3362000090565b80516200006f90600a906020840190620000e2565b5050620002b1565b80516200008c906002906020840190620000e2565b5050565b600480546001600160a01b038381166001600160a01b0319831681179093556040519116919082907f8be0079c531659141344cd1fd0a4f28419497f9722a3daafe3b4186f6b6457e090600090a35050565b828054620000f0906200025e565b90600052602060002090601f0160209004810192826200011457600085556200015f565b82601f106200012f57805160ff19168380011785556200015f565b828001600101855582156200015f579182015b828111156200015f57825182559160200191906001019062000142565b506200016d92915062000171565b5090565b5b808211156200016d576000815560010162000172565b600060208083850312156200019b578182fd5b82516001600160401b0380821115620001b2578384fd5b818501915085601f830112620001c6578384fd5b815181811115620001db57620001db6200029b565b604051601f8201601f19908116603f011681019083821181831017156200020657620002066200029b565b8160405282815288868487010111156200021e578687fd5b8693505b8284101562000241578484018601518185018701529285019262000222565b828411156200025257868684830101525b98975050505050505050565b600181811c908216806200027357607f821691505b602082108114156200029557634e487b7160e01b600052602260045260246000fd5b50919050565b634e487b7160e01b600052604160045260246000fd5b612e2980620002c16000396000f3fe608060405234801561001057600080fd5b50600436106101cd5760003560e01c80636b20c45411610104578063a4b645eb116100a2578063f242432a11610071578063f242432a1461042b578063f2fde38b1461043e578063f51f96dd14610451578063f5298aca1461045a57600080fd5b8063a4b645eb146103b3578063bd85b039146103c6578063d5abeb01146103e6578063e985e9c5146103ef57600080fd5b806380acb136116100de57806380acb1361461036957806381b99cc71461037c5780638da5cb5b1461038f578063a22cb465146103a057600080fd5b80636b20c454146103465780636c0360eb14610359578063715018a61461036157600080fd5b80632eb2c2d6116101715780634f558e791161014b5780634f558e79146102fc57806351b42b001461031e57806355f804b31461032657806368428a1b1461033957600080fd5b80632eb2c2d61461029e5780634dcffde0146102b15780634e1273f4146102dc57600080fd5b80630e89341c116101ad5780630e89341c1461023057806310168e591461025057806318e97fd1146102595780632a55205a1461026c57600080fd5b80620fa9fb146101d2578062fdd58e146101e757806301ffc9a71461020d575b600080fd5b6101e56101e0366004612948565b61046d565b005b6101fa6101f5366004612707565b610604565b6040519081526020015b60405180910390f35b61022061021b366004612910565b6106a8565b6040519015158152602001610204565b61024361023e366004612995565b6106ed565b6040516102049190612b98565b6101fa60055481565b6101e56102673660046129c5565b6106f8565b61027f61027a366004612a00565b610760565b604080516001600160a01b039093168352602083019190915201610204565b6101e56102ac366004612556565b61079a565b6006546102c4906001600160a01b031681565b6040516001600160a01b039091168152602001610204565b6102ef6102ea366004612827565b61083c565b6040516102049190612b57565b61022061030a366004612995565b600090815260036020526040902054151590565b6101e56109b2565b6101e561033436600461295a565b610a4e565b6009546102209060ff1681565b6101e5610354366004612667565b610abb565b610243610b45565b6101e5610bd7565b6101e56103773660046127be565b610c3d565b6101e561038a366004612995565b610d95565b6004546001600160a01b03166102c4565b6101e56103ae3660046126da565b6110db565b6101e56103c1366004612766565b6111c6565b6101fa6103d4366004612995565b60009081526003602052604090205490565b6101fa60075481565b6102206103fd36600461251e565b6001600160a01b03918216600090815260016020908152604080832093909416825291909152205460ff1690565b6101e5610439366004612600565b611236565b6101e561044c366004612502565b6112bd565b6101fa60085481565b6101e5610468366004612732565b61139f565b6004546001600160a01b031633146104cc5760405162461bcd60e51b815260206004820181905260248201527f4f776e61626c653a2063616c6c6572206973206e6f7420746865206f776e657260448201526064015b60405180910390fd5b6040517f70a082310000000000000000000000000000000000000000000000000000000081523060048201526000906001600160a01b038416906370a082319060240160206040518083038186803b15801561052757600080fd5b505afa15801561053b573d6000803e3d6000fd5b505050506040513d601f19601f8201168201806040525081019061055f91906129ad565b6040517fa9059cbb0000000000000000000000000000000000000000000000000000000081526001600160a01b038481166004830152602482018390529192509084169063a9059cbb90604401602060405180830381600087803b1580156105c657600080fd5b505af11580156105da573d6000803e3d6000fd5b505050506040513d601f19601f820116820180604052508101906105fe91906128f4565b50505050565b60006001600160a01b0383166106825760405162461bcd60e51b815260206004820152602b60248201527f455243313135353a2062616c616e636520717565727920666f7220746865207a60448201527f65726f206164647265737300000000000000000000000000000000000000000060648201526084016104c3565b506000908152602081815260408083206001600160a01b03949094168352929052205490565b60006106b382611424565b806106e757506001600160e01b031982167f2a55205a00000000000000000000000000000000000000000000000000000000145b92915050565b60606106e7826114bf565b6004546001600160a01b031633146107525760405162461bcd60e51b815260206004820181905260248201527f4f776e61626c653a2063616c6c6572206973206e6f7420746865206f776e657260448201526064016104c3565b61075c82826115a3565b5050565b600d54600c5460009182916001600160a01b0390911690612710906107859086612c07565b61078f9190612be7565b915091509250929050565b6001600160a01b0385163314806107b657506107b685336103fd565b6108285760405162461bcd60e51b815260206004820152603260248201527f455243313135353a207472616e736665722063616c6c6572206973206e6f742060448201527f6f776e6572206e6f7220617070726f766564000000000000000000000000000060648201526084016104c3565b6108358585858585611607565b5050505050565b606081518351146108b55760405162461bcd60e51b815260206004820152602960248201527f455243313135353a206163636f756e747320616e6420696473206c656e67746860448201527f206d69736d61746368000000000000000000000000000000000000000000000060648201526084016104c3565b6000835167ffffffffffffffff8111156108df57634e487b7160e01b600052604160045260246000fd5b604051908082528060200260200182016040528015610908578160200160208202803683370190505b50905060005b84518110156109aa5761096f85828151811061093a57634e487b7160e01b600052603260045260246000fd5b602002602001015185838151811061096257634e487b7160e01b600052603260045260246000fd5b6020026020010151610604565b82828151811061098f57634e487b7160e01b600052603260045260246000fd5b60209081029190910101526109a381612cd1565b905061090e565b509392505050565b6004546001600160a01b03163314610a0c5760405162461bcd60e51b815260206004820181905260248201527f4f776e61626c653a2063616c6c6572206973206e6f7420746865206f776e657260448201526064016104c3565b6009805460ff191690556005546040519081527f642028127038cd17804be50978266c980dbd2234656c49d7f9c43f15985cf0ad9060200160405180910390a1565b6004546001600160a01b03163314610aa85760405162461bcd60e51b815260206004820181905260248201527f4f776e61626c653a2063616c6c6572206973206e6f7420746865206f776e657260448201526064016104c3565b805161075c90600a906020840190612386565b6001600160a01b038316331480610ad75750610ad783336103fd565b610b355760405162461bcd60e51b815260206004820152602960248201527f455243313135353a2063616c6c6572206973206e6f74206f776e6572206e6f7260448201526808185c1c1c9bdd995960ba1b60648201526084016104c3565b610b40838383611879565b505050565b6060600a8054610b5490612c69565b80601f0160208091040260200160405190810160405280929190818152602001828054610b8090612c69565b8015610bcd5780601f10610ba257610100808354040283529160200191610bcd565b820191906000526020600020905b815481529060010190602001808311610bb057829003601f168201915b5050505050905090565b6004546001600160a01b03163314610c315760405162461bcd60e51b815260206004820181905260248201527f4f776e61626c653a2063616c6c6572206973206e6f7420746865206f776e657260448201526064016104c3565b610c3b6000611917565b565b6004546001600160a01b03163314610c975760405162461bcd60e51b815260206004820181905260248201527f4f776e61626c653a2063616c6c6572206973206e6f7420746865206f776e657260448201526064016104c3565b60095460ff1615610cea5760405162461bcd60e51b815260206004820152600f60248201527f416c72656164792061637469766521000000000000000000000000000000000060448201526064016104c3565b6009805460ff191660011790556005839055600680546001600160a01b03871673ffffffffffffffffffffffffffffffffffffffff1990911617905560088490556007819055610d3a83836115a3565b600554600654600854600754604080516001600160a01b039094168452602084019290925282820152517fee4e96b139854fb8597f10446dfd7c975b847896a38363a4c923326fe8f06a059181900360600190a25050505050565b60095460ff16610de75760405162461bcd60e51b815260206004820152600860248201527f496e61637469766500000000000000000000000000000000000000000000000060448201526064016104c3565b60058111158015610df85750600081115b610e445760405162461bcd60e51b815260206004820152601860248201527f496e76616c696420616d6f756e7420726571756573746564000000000000000060448201526064016104c3565b6006546008546001600160a01b03909116903090600090610e66908590612c07565b6040517fdd62ed3e0000000000000000000000000000000000000000000000000000000081523360048201526001600160a01b038481166024830152919250829185169063dd62ed3e9060440160206040518083038186803b158015610ecb57600080fd5b505afa158015610edf573d6000803e3d6000fd5b505050506040513d601f19601f82011682018060405250810190610f0391906129ad565b1015610f515760405162461bcd60e51b815260206004820152601760248201527f546f6b656e20616c6c6f77616e636520746f6f206c6f7700000000000000000060448201526064016104c3565b600554600090815260036020526040812054610f6e908690612bcf565b9050600754811115610fc25760405162461bcd60e51b815260206004820152601f60248201527f52657175657374696e67206d6f7265207468616e206d617820737570706c790060448201526064016104c3565b6040517f23b872dd0000000000000000000000000000000000000000000000000000000081523360048201526001600160a01b03848116602483015260448201849052600091908616906323b872dd90606401602060405180830381600087803b15801561102f57600080fd5b505af1158015611043573d6000803e3d6000fd5b505050506040513d601f19601f8201168201806040525081019061106791906128f4565b9050806110b65760405162461bcd60e51b815260206004820152601560248201527f546f6b656e207472616e73666572206661696c6564000000000000000000000060448201526064016104c3565b6110d3336005548860405180602001604052806000815250611976565b505050505050565b336001600160a01b038316141561115a5760405162461bcd60e51b815260206004820152602960248201527f455243313135353a2073657474696e6720617070726f76616c2073746174757360448201527f20666f722073656c66000000000000000000000000000000000000000000000060648201526084016104c3565b3360008181526001602090815260408083206001600160a01b03871680855290835292819020805460ff191686151590811790915590519081529192917f17307eab39ab6107e8899845ad3d59bd9653f200f220920489ca2b5937696c31910160405180910390a35050565b6004546001600160a01b031633146112205760405162461bcd60e51b815260206004820181905260248201527f4f776e61626c653a2063616c6c6572206973206e6f7420746865206f776e657260448201526064016104c3565b61122c85858584611976565b61083584836115a3565b6001600160a01b038516331480611252575061125285336103fd565b6112b05760405162461bcd60e51b815260206004820152602960248201527f455243313135353a2063616c6c6572206973206e6f74206f776e6572206e6f7260448201526808185c1c1c9bdd995960ba1b60648201526084016104c3565b61083585858585856119ab565b6004546001600160a01b031633146113175760405162461bcd60e51b815260206004820181905260248201527f4f776e61626c653a2063616c6c6572206973206e6f7420746865206f776e657260448201526064016104c3565b6001600160a01b0381166113935760405162461bcd60e51b815260206004820152602660248201527f4f776e61626c653a206e6577206f776e657220697320746865207a65726f206160448201527f646472657373000000000000000000000000000000000000000000000000000060648201526084016104c3565b61139c81611917565b50565b6001600160a01b0383163314806113bb57506113bb83336103fd565b6114195760405162461bcd60e51b815260206004820152602960248201527f455243313135353a2063616c6c6572206973206e6f74206f776e6572206e6f7260448201526808185c1c1c9bdd995960ba1b60648201526084016104c3565b610b40838383611b52565b60006001600160e01b031982167fd9b67a2600000000000000000000000000000000000000000000000000000000148061148757506001600160e01b031982167f0e89341c00000000000000000000000000000000000000000000000000000000145b806106e757507f01ffc9a7000000000000000000000000000000000000000000000000000000006001600160e01b03198316146106e7565b6000818152600b60205260408120805460609291906114dd90612c69565b80601f016020809104026020016040519081016040528092919081815260200182805461150990612c69565b80156115565780601f1061152b57610100808354040283529160200191611556565b820191906000526020600020905b81548152906001019060200180831161153957829003601f168201915b505050505090506000611567610b45565b82519091501561159c578082604051602001611584929190612a87565b60405160208183030381529060405292505050919050565b9392505050565b6000828152600b6020908152604090912082516115c292840190612386565b50817f6bb7ff708619ba0610cba295a58592e0451dee2622938c8755667688daf3529b6115ee846114bf565b6040516115fb9190612b98565b60405180910390a25050565b81518351146116695760405162461bcd60e51b815260206004820152602860248201527f455243313135353a2069647320616e6420616d6f756e7473206c656e677468206044820152670dad2e6dac2e8c6d60c31b60648201526084016104c3565b6001600160a01b0384166116cd5760405162461bcd60e51b815260206004820152602560248201527f455243313135353a207472616e7366657220746f20746865207a65726f206164604482015264647265737360d81b60648201526084016104c3565b3360005b84518110156118135760008582815181106116fc57634e487b7160e01b600052603260045260246000fd5b60200260200101519050600085838151811061172857634e487b7160e01b600052603260045260246000fd5b602090810291909101810151600084815280835260408082206001600160a01b038e1683529093529190912054909150818110156117bb5760405162461bcd60e51b815260206004820152602a60248201527f455243313135353a20696e73756666696369656e742062616c616e636520666f60448201526939103a3930b739b332b960b11b60648201526084016104c3565b6000838152602081815260408083206001600160a01b038e8116855292528083208585039055908b168252812080548492906117f8908490612bcf565b925050819055505050508061180c90612cd1565b90506116d1565b50846001600160a01b0316866001600160a01b0316826001600160a01b03167f4a39dc06d4c0dbc64b70af90fd698a233a518aa5d07e595d983b8c0526c8f7fb8787604051611863929190612b6a565b60405180910390a46110d3818787878787611b85565b611884838383611d3a565b60005b82518110156105fe578181815181106118b057634e487b7160e01b600052603260045260246000fd5b6020026020010151600360008584815181106118dc57634e487b7160e01b600052603260045260246000fd5b6020026020010151815260200190815260200160002060008282546119019190612c26565b90915550611910905081612cd1565b9050611887565b600480546001600160a01b0383811673ffffffffffffffffffffffffffffffffffffffff19831681179093556040519116919082907f8be0079c531659141344cd1fd0a4f28419497f9722a3daafe3b4186f6b6457e090600090a35050565b61198284848484611f8b565b600083815260036020526040812080548492906119a0908490612bcf565b909155505050505050565b6001600160a01b038416611a0f5760405162461bcd60e51b815260206004820152602560248201527f455243313135353a207472616e7366657220746f20746865207a65726f206164604482015264647265737360d81b60648201526084016104c3565b33611a28818787611a1f886120a8565b610835886120a8565b6000848152602081815260408083206001600160a01b038a16845290915290205483811015611aac5760405162461bcd60e51b815260206004820152602a60248201527f455243313135353a20696e73756666696369656e742062616c616e636520666f60448201526939103a3930b739b332b960b11b60648201526084016104c3565b6000858152602081815260408083206001600160a01b038b8116855292528083208785039055908816825281208054869290611ae9908490612bcf565b909155505060408051868152602081018690526001600160a01b03808916928a821692918616917fc3d58168c5ae7397731d063d5bbf3d657854427343f4c083240f7aacaa2d0f62910160405180910390a4611b49828888888888612101565b50505050505050565b611b5d83838361220c565b60008281526003602052604081208054839290611b7b908490612c26565b9091555050505050565b6001600160a01b0384163b156110d35760405163bc197c8160e01b81526001600160a01b0385169063bc197c8190611bc99089908990889088908890600401612ab6565b602060405180830381600087803b158015611be357600080fd5b505af1925050508015611c13575060408051601f3d908101601f19168201909252611c109181019061292c565b60015b611cc957611c1f612d18565b806308c379a01415611c595750611c34612d30565b80611c3f5750611c5b565b8060405162461bcd60e51b81526004016104c39190612b98565b505b60405162461bcd60e51b815260206004820152603460248201527f455243313135353a207472616e7366657220746f206e6f6e204552433131353560448201527f526563656976657220696d706c656d656e74657200000000000000000000000060648201526084016104c3565b6001600160e01b0319811663bc197c8160e01b14611b495760405162461bcd60e51b815260206004820152602860248201527f455243313135353a204552433131353552656365697665722072656a656374656044820152676420746f6b656e7360c01b60648201526084016104c3565b6001600160a01b038316611d9c5760405162461bcd60e51b815260206004820152602360248201527f455243313135353a206275726e2066726f6d20746865207a65726f206164647260448201526265737360e81b60648201526084016104c3565b8051825114611dfe5760405162461bcd60e51b815260206004820152602860248201527f455243313135353a2069647320616e6420616d6f756e7473206c656e677468206044820152670dad2e6dac2e8c6d60c31b60648201526084016104c3565b604080516020810190915260009081905233905b8351811015611f2c576000848281518110611e3d57634e487b7160e01b600052603260045260246000fd5b602002602001015190506000848381518110611e6957634e487b7160e01b600052603260045260246000fd5b602090810291909101810151600084815280835260408082206001600160a01b038c168352909352919091205490915081811015611ef55760405162461bcd60e51b8152602060048201526024808201527f455243313135353a206275726e20616d6f756e7420657863656564732062616c604482015263616e636560e01b60648201526084016104c3565b6000928352602083815260408085206001600160a01b038b1686529091529092209103905580611f2481612cd1565b915050611e12565b5060006001600160a01b0316846001600160a01b0316826001600160a01b03167f4a39dc06d4c0dbc64b70af90fd698a233a518aa5d07e595d983b8c0526c8f7fb8686604051611f7d929190612b6a565b60405180910390a450505050565b6001600160a01b0384166120075760405162461bcd60e51b815260206004820152602160248201527f455243313135353a206d696e7420746f20746865207a65726f2061646472657360448201527f730000000000000000000000000000000000000000000000000000000000000060648201526084016104c3565b3361201881600087611a1f886120a8565b6000848152602081815260408083206001600160a01b038916845290915281208054859290612048908490612bcf565b909155505060408051858152602081018590526001600160a01b0380881692600092918516917fc3d58168c5ae7397731d063d5bbf3d657854427343f4c083240f7aacaa2d0f62910160405180910390a461083581600087878787612101565b604080516001808252818301909252606091600091906020808301908036833701905050905082816000815181106120f057634e487b7160e01b600052603260045260246000fd5b602090810291909101015292915050565b6001600160a01b0384163b156110d35760405163f23a6e6160e01b81526001600160a01b0385169063f23a6e61906121459089908990889088908890600401612b14565b602060405180830381600087803b15801561215f57600080fd5b505af192505050801561218f575060408051601f3d908101601f1916820190925261218c9181019061292c565b60015b61219b57611c1f612d18565b6001600160e01b0319811663f23a6e6160e01b14611b495760405162461bcd60e51b815260206004820152602860248201527f455243313135353a204552433131353552656365697665722072656a656374656044820152676420746f6b656e7360c01b60648201526084016104c3565b6001600160a01b03831661226e5760405162461bcd60e51b815260206004820152602360248201527f455243313135353a206275726e2066726f6d20746865207a65726f206164647260448201526265737360e81b60648201526084016104c3565b3361229e8185600061227f876120a8565b612288876120a8565b5050604080516020810190915260009052505050565b6000838152602081815260408083206001600160a01b03881684529091529020548281101561231b5760405162461bcd60e51b8152602060048201526024808201527f455243313135353a206275726e20616d6f756e7420657863656564732062616c604482015263616e636560e01b60648201526084016104c3565b6000848152602081815260408083206001600160a01b03898116808652918452828520888703905582518981529384018890529092908616917fc3d58168c5ae7397731d063d5bbf3d657854427343f4c083240f7aacaa2d0f62910160405180910390a45050505050565b82805461239290612c69565b90600052602060002090601f0160209004810192826123b457600085556123fa565b82601f106123cd57805160ff19168380011785556123fa565b828001600101855582156123fa579182015b828111156123fa5782518255916020019190600101906123df565b5061240692915061240a565b5090565b5b80821115612406576000815560010161240b565b600082601f83011261242f578081fd5b8135602061243c82612bab565b6040516124498282612ca4565b8381528281019150858301600585901b87018401881015612468578586fd5b855b858110156124865781358452928401929084019060010161246a565b5090979650505050505050565b600082601f8301126124a3578081fd5b813567ffffffffffffffff8111156124bd576124bd612d02565b6040516124d4601f8301601f191660200182612ca4565b8181528460208386010111156124e8578283fd5b816020850160208301379081016020019190915292915050565b600060208284031215612513578081fd5b813561159c81612dba565b60008060408385031215612530578081fd5b823561253b81612dba565b9150602083013561254b81612dba565b809150509250929050565b600080600080600060a0868803121561256d578081fd5b853561257881612dba565b9450602086013561258881612dba565b9350604086013567ffffffffffffffff808211156125a4578283fd5b6125b089838a0161241f565b945060608801359150808211156125c5578283fd5b6125d189838a0161241f565b935060808801359150808211156125e6578283fd5b506125f388828901612493565b9150509295509295909350565b600080600080600060a08688031215612617578081fd5b853561262281612dba565b9450602086013561263281612dba565b93506040860135925060608601359150608086013567ffffffffffffffff81111561265b578182fd5b6125f388828901612493565b60008060006060848603121561267b578283fd5b833561268681612dba565b9250602084013567ffffffffffffffff808211156126a2578384fd5b6126ae8783880161241f565b935060408601359150808211156126c3578283fd5b506126d08682870161241f565b9150509250925092565b600080604083850312156126ec578182fd5b82356126f781612dba565b9150602083013561254b81612dcf565b60008060408385031215612719578182fd5b823561272481612dba565b946020939093013593505050565b600080600060608486031215612746578081fd5b833561275181612dba565b95602085013595506040909401359392505050565b600080600080600060a0868803121561277d578283fd5b853561278881612dba565b94506020860135935060408601359250606086013567ffffffffffffffff808211156127b2578283fd5b6125d189838a01612493565b600080600080600060a086880312156127d5578283fd5b85356127e081612dba565b94506020860135935060408601359250606086013567ffffffffffffffff811115612809578182fd5b61281588828901612493565b95989497509295608001359392505050565b60008060408385031215612839578182fd5b823567ffffffffffffffff80821115612850578384fd5b818501915085601f830112612863578384fd5b8135602061287082612bab565b60405161287d8282612ca4565b8381528281019150858301600585901b870184018b101561289c578889fd5b8896505b848710156128c75780356128b381612dba565b8352600196909601959183019183016128a0565b50965050860135925050808211156128dd578283fd5b506128ea8582860161241f565b9150509250929050565b600060208284031215612905578081fd5b815161159c81612dcf565b600060208284031215612921578081fd5b813561159c81612ddd565b60006020828403121561293d578081fd5b815161159c81612ddd565b60008060408385031215612530578182fd5b60006020828403121561296b578081fd5b813567ffffffffffffffff811115612981578182fd5b61298d84828501612493565b949350505050565b6000602082840312156129a6578081fd5b5035919050565b6000602082840312156129be578081fd5b5051919050565b600080604083850312156129d7578182fd5b82359150602083013567ffffffffffffffff8111156129f4578182fd5b6128ea85828601612493565b60008060408385031215612a12578182fd5b50508035926020909101359150565b6000815180845260208085019450808401835b83811015612a5057815187529582019590820190600101612a34565b509495945050505050565b60008151808452612a73816020860160208601612c3d565b601f01601f19169290920160200192915050565b60008351612a99818460208801612c3d565b835190830190612aad818360208801612c3d565b01949350505050565b60006001600160a01b03808816835280871660208401525060a06040830152612ae260a0830186612a21565b8281036060840152612af48186612a21565b90508281036080840152612b088185612a5b565b98975050505050505050565b60006001600160a01b03808816835280871660208401525084604083015283606083015260a06080830152612b4c60a0830184612a5b565b979650505050505050565b60208152600061159c6020830184612a21565b604081526000612b7d6040830185612a21565b8281036020840152612b8f8185612a21565b95945050505050565b60208152600061159c6020830184612a5b565b600067ffffffffffffffff821115612bc557612bc5612d02565b5060051b60200190565b60008219821115612be257612be2612cec565b500190565b600082612c0257634e487b7160e01b81526012600452602481fd5b500490565b6000816000190483118215151615612c2157612c21612cec565b500290565b600082821015612c3857612c38612cec565b500390565b60005b83811015612c58578181015183820152602001612c40565b838111156105fe5750506000910152565b600181811c90821680612c7d57607f821691505b60208210811415612c9e57634e487b7160e01b600052602260045260246000fd5b50919050565b601f8201601f1916810167ffffffffffffffff81118282101715612cca57612cca612d02565b6040525050565b6000600019821415612ce557612ce5612cec565b5060010190565b634e487b7160e01b600052601160045260246000fd5b634e487b7160e01b600052604160045260246000fd5b600060033d1115612d2d57600481823e5160e01c5b90565b600060443d1015612d3e5790565b6040516003193d81016004833e81513d67ffffffffffffffff8160248401118184111715612d6e57505050505090565b8285019150815181811115612d865750505050505090565b843d8701016020828501011115612da05750505050505090565b612daf60208286010187612ca4565b509095945050505050565b6001600160a01b038116811461139c57600080fd5b801515811461139c57600080fd5b6001600160e01b03198116811461139c57600080fdfea2646970667358221220bc46dc7a95861fca3bb24d7fa3e40139ee1c0ba6981f4ba2a9ab8c6245b08fb064736f6c63430008040033",
  "devdoc": {
    "kind": "dev",
    "methods": {
      "activate(address,uint256,uint256,string,uint256)": {
        "details": "Activate public sale"
      },
      "balanceOf(address,uint256)": {
        "details": "See {IERC1155-balanceOf}. Requirements: - `account` cannot be the zero address."
      },
      "balanceOfBatch(address[],uint256[])": {
        "details": "See {IERC1155-balanceOfBatch}. Requirements: - `accounts` and `ids` must have the same length."
      },
      "baseURI()": {
        "details": "returns the base URI since the actual uri function is overridden"
      },
      "buyMetaLoot(uint256)": {
        "details": "Buy and mint MetaLoot"
      },
      "deactivate()": {
        "details": "Deactivate public sale"
      },
      "exists(uint256)": {
        "details": "Indicates weither any token exist with a given id, or not."
      },
      "isApprovedForAll(address,address)": {
        "details": "See {IERC1155-isApprovedForAll}."
      },
      "mint(address,uint256,uint256,string,bytes)": {
        "details": "mint a new token"
      },
      "owner()": {
        "details": "Returns the address of the current owner."
      },
      "renounceOwnership()": {
        "details": "Leaves the contract without owner. It will not be possible to call `onlyOwner` functions anymore. Can only be called by the current owner. NOTE: Renouncing ownership will leave the contract without an owner, thereby removing any functionality that is only available to the owner."
      },
      "safeBatchTransferFrom(address,address,uint256[],uint256[],bytes)": {
        "details": "See {IERC1155-safeBatchTransferFrom}."
      },
      "safeTransferFrom(address,address,uint256,uint256,bytes)": {
        "details": "See {IERC1155-safeTransferFrom}."
      },
      "setApprovalForAll(address,bool)": {
        "details": "See {IERC1155-setApprovalForAll}."
      },
      "supportsInterface(bytes4)": {
        "details": "See {IERC165-supportsInterface}."
      },
      "totalSupply(uint256)": {
        "details": "Total amount of tokens in with a given id."
      },
      "transferOwnership(address)": {
        "details": "Transfers ownership of the contract to a new account (`newOwner`). Can only be called by the current owner."
      },
      "updateTokenURI(uint256,string)": {
        "details": "Updates tokenURI of `tokenId`."
      },
      "withdrawFunds(address,address)": {
        "details": "Pull sales proceeds from contract"
      }
    },
    "version": 1
  },
  "userdoc": {
    "kind": "user",
    "methods": {},
    "version": 1
  },
  "storageLayout": {
    "storage": [
      {
        "astId": 129,
        "contract": "contracts/MetaLoot.sol:MetaLoot",
        "label": "_balances",
        "offset": 0,
        "slot": "0",
        "type": "t_mapping(t_uint256,t_mapping(t_address,t_uint256))"
      },
      {
        "astId": 135,
        "contract": "contracts/MetaLoot.sol:MetaLoot",
        "label": "_operatorApprovals",
        "offset": 0,
        "slot": "1",
        "type": "t_mapping(t_address,t_mapping(t_address,t_bool))"
      },
      {
        "astId": 137,
        "contract": "contracts/MetaLoot.sol:MetaLoot",
        "label": "_uri",
        "offset": 0,
        "slot": "2",
        "type": "t_string_storage"
      },
      {
        "astId": 1426,
        "contract": "contracts/MetaLoot.sol:MetaLoot",
        "label": "_totalSupply",
        "offset": 0,
        "slot": "3",
        "type": "t_mapping(t_uint256,t_uint256)"
      },
      {
        "astId": 7,
        "contract": "contracts/MetaLoot.sol:MetaLoot",
        "label": "_owner",
        "offset": 0,
        "slot": "4",
        "type": "t_address"
      },
      {
        "astId": 2636,
        "contract": "contracts/MetaLoot.sol:MetaLoot",
        "label": "saleTokenId",
        "offset": 0,
        "slot": "5",
        "type": "t_uint256"
      },
      {
        "astId": 2638,
        "contract": "contracts/MetaLoot.sol:MetaLoot",
        "label": "paymentTokenContract",
        "offset": 0,
        "slot": "6",
        "type": "t_address"
      },
      {
        "astId": 2640,
        "contract": "contracts/MetaLoot.sol:MetaLoot",
        "label": "maxSupply",
        "offset": 0,
        "slot": "7",
        "type": "t_uint256"
      },
      {
        "astId": 2642,
        "contract": "contracts/MetaLoot.sol:MetaLoot",
        "label": "salePrice",
        "offset": 0,
        "slot": "8",
        "type": "t_uint256"
      },
      {
        "astId": 2644,
        "contract": "contracts/MetaLoot.sol:MetaLoot",
        "label": "saleActive",
        "offset": 0,
        "slot": "9",
        "type": "t_bool"
      },
      {
        "astId": 2649,
        "contract": "contracts/MetaLoot.sol:MetaLoot",
        "label": "_baseURI",
        "offset": 0,
        "slot": "10",
        "type": "t_string_storage"
      },
      {
        "astId": 2653,
        "contract": "contracts/MetaLoot.sol:MetaLoot",
        "label": "_tokenURIs",
        "offset": 0,
        "slot": "11",
        "type": "t_mapping(t_uint256,t_string_storage)"
      },
      {
        "astId": 3097,
        "contract": "contracts/MetaLoot.sol:MetaLoot",
        "label": "_royaltyBps",
        "offset": 0,
        "slot": "12",
        "type": "t_uint256"
      },
      {
        "astId": 3099,
        "contract": "contracts/MetaLoot.sol:MetaLoot",
        "label": "_royaltyRecipient",
        "offset": 0,
        "slot": "13",
        "type": "t_address_payable"
      }
    ],
    "types": {
      "t_address": {
        "encoding": "inplace",
        "label": "address",
        "numberOfBytes": "20"
      },
      "t_address_payable": {
        "encoding": "inplace",
        "label": "address payable",
        "numberOfBytes": "20"
      },
      "t_bool": {
        "encoding": "inplace",
        "label": "bool",
        "numberOfBytes": "1"
      },
      "t_mapping(t_address,t_bool)": {
        "encoding": "mapping",
        "key": "t_address",
        "label": "mapping(address => bool)",
        "numberOfBytes": "32",
        "value": "t_bool"
      },
      "t_mapping(t_address,t_mapping(t_address,t_bool))": {
        "encoding": "mapping",
        "key": "t_address",
        "label": "mapping(address => mapping(address => bool))",
        "numberOfBytes": "32",
        "value": "t_mapping(t_address,t_bool)"
      },
      "t_mapping(t_address,t_uint256)": {
        "encoding": "mapping",
        "key": "t_address",
        "label": "mapping(address => uint256)",
        "numberOfBytes": "32",
        "value": "t_uint256"
      },
      "t_mapping(t_uint256,t_mapping(t_address,t_uint256))": {
        "encoding": "mapping",
        "key": "t_uint256",
        "label": "mapping(uint256 => mapping(address => uint256))",
        "numberOfBytes": "32",
        "value": "t_mapping(t_address,t_uint256)"
      },
      "t_mapping(t_uint256,t_string_storage)": {
        "encoding": "mapping",
        "key": "t_uint256",
        "label": "mapping(uint256 => string)",
        "numberOfBytes": "32",
        "value": "t_string_storage"
      },
      "t_mapping(t_uint256,t_uint256)": {
        "encoding": "mapping",
        "key": "t_uint256",
        "label": "mapping(uint256 => uint256)",
        "numberOfBytes": "32",
        "value": "t_uint256"
      },
      "t_string_storage": {
        "encoding": "bytes",
        "label": "string",
        "numberOfBytes": "32"
      },
      "t_uint256": {
        "encoding": "inplace",
        "label": "uint256",
        "numberOfBytes": "32"
      }
    }
  }
}